S010000044696E6F2052756E2E7372656335
S11300000C942A000C9447000C9447000C9424038D
S11300100C9447000C9447000C9447000C94470040
S11300200C9447000C9447000C9447000C94470030
S11300300C9447000C9447000C9447000C94470020
S11300400C9447000C9447000C9447000C94470010
S11300500C94470011241FBECFE5D8E0DEBFCDBF0E
S113006010E0A0E6B0E0E0E2FBE002C005900D92F3
S1130070A83EB107D9F720E0A8EEB0E001C01D9278
S1130080A03FB207E1F70E943E030C948E050C9446
S11300900000672B09F0DFC0009721F48BB38E7F3B
S11300A08BBB08958130910521F48BB38D7F8BBB7D
S11300B008958230910521F48BB38B7F8BBB089517
S11300C08330910521F48BB3877F8BBB08958430F3
S11300D0910521F48BB38F7E8BBB089585309105F8
S11300E021F48BB38F7D8BBB08958630910521F469
S11300F08BB38F7B8BBB08958730910521F48BB331
S11301008F778BBB08958A30910521F488B38E7F55
S113011088BB08958B30910521F488B38D7F88BB0B
S113012008958C30910521F488B38B7F88BB0895A2
S11301308D30910521F488B3877F88BB08958E3074
S1130140910521F488B38F7E88BB08958F30910583
S113015021F488B38F7D88BB08958031910521F403
S113016088B38F7B88BB08958131910521F488B3CE
S11301708F7788BB08958431910521F485B38E7FF0
S113018085BB08958531910521F485B38D7F85BBA9
S113019008958631910521F485B38B7F85BB08953D
S11301A08731910521F485B3877F85BB0895883114
S11301B0910521F485B38F7E85BB0895893191051E
S11301C021F485B38F7D85BB08958A31910521F48F
S11301D085B38F7B85BB08958B31910521F485B35D
S11301E08F7785BB08958E31910521F482B38E7F7C
S11301F082BB08958F31910521F482B38D7F82BB38
S113020008958032910521F482B38B7F82BB0895D7
S11302108132910521F482B3877F82BB08958232B3
S1130220910521F482B38F7E82BB089583329105B8
S113023021F482B38F7D82BB08958432910521F429
S113024082B38F7B82BB0895859709F0E1C082B3A6
S11302508F7782BB0895009721F48BB381608BBBA9
S113026008958130910521F48BB382608BBB08958E
S11302708230910521F48BB384608BBB0895833065
S1130280910521F48BB388608BBB0895843091056C
S113029021F48BB380618BBB08958530910521F4E3
S11302A08BB380628BBB08958630910521F48BB3A8
S11302B080648BBB08958730910521F48BB38068EB
S11302C08BBB08958A30910521F488B3816088BB83
S11302D008958B30910521F488B3826088BB08951A
S11302E08C30910521F488B3846088BB08958D30E7
S11302F0910521F488B3886088BB08958E309105F8
S113030021F488B3806188BB08958F30910521F46E
S113031088B3806288BB08958031910521F488B345
S1130320806488BB08958131910521F488B3806885
S113033088BB08958431910521F485B3816085BB20
S113034008958531910521F485B3826085BB0895B4
S11303508631910521F485B3846085BB0895873186
S1130360910521F485B3886085BB08958831910592
S113037021F485B3806185BB08958931910521F409
S113038085B3806285BB08958A31910521F485B3D4
S1130390806485BB08958B31910521F485B3806811
S11303A085BB08958E31910521F482B3816082BBAF
S11303B008958F31910521F482B3826082BB089540
S11303C08032910521F482B3846082BB0895813226
S11303D0910521F482B3886082BB0895823291052D
S11303E021F482B3806182BB08958332910521F4A4
S11303F082B3806282BB08958432910521F482B372
S1130400806482BB0895859719F482B3806882BBA7
S11304100895CF93C82F80FF07C061E070E08EE09D
S113042090E00E94490006C060E070E08EE090E039
S11304300E944900C1FF07C061E070E08FE090E0D6
S11304400E94490006C060E070E08FE090E00E94E6
S11304504900C2FF07C061E070E080E190E00E94C3
S1130460490006C060E070E080E190E00E9449002D
S1130470C3FF07C061E070E081E190E00E944900A1
S113048006C060E070E081E190E00E944900CF91F5
S11304900895CF93C82F60E070E086E090E00E945A
S11304A049008C2F0E94090261E070E087E090E02F
S11304B00E94490089EF90E00197F1F700C0000025
S11304C060E070E087E090E00E94490089EF90E0EE
S11304D00197F1F700C00000CF91089580E00E94D9
S11304E0490281E00E9449020895CF93813061F46A
S11304F080E8860FC62FCF7082958F700E944902C4
S11305008C2F0E9449020DC0823059F480EC860F72
S1130510C62FCF7082958F700E9449028C2F0E9443
S11305204902CF91089580E00E94090287E893E18F
S11305300197F1F700C0000083E00E94490281EEB8
S113054094E00197F1F700C0000083E00E944902A3
S11305508DEB9AE00197F1F700C0000083E00E9460
S1130560490282E00E94490282E00E94490288E036
S11305700E94490280E00E9449028CE00E944902E4
S113058080E00E94490286E00E9449020895CF93C8
S1130590DF93D82FDF70C82FC07F61E070E086E062
S11305A090E00E9449008C2F82958F700E9409026E
S11305B061E070E087E090E00E94490089EF90E0FC
S11305C00197F1F700C0000060E070E087E090E080
S11305D00E94490089EF90E00197F1F700C0000004
S11305E08D2F0E94090261E070E087E090E00E9494
S11305F0490089EF90E00197F1F700C0000060E046
S113060070E087E090E00E94490089EF90E0019754
S1130610F1F700C00000DF91CF9108950F931F936D
S1130620CF93DF938C01C0E0D0E003C00E94C702E7
S11306302196F801EC0FFD1F80818111F7CFDF9126
S1130640CF911F910F9108951F920F920FB60F92A1
S113065011242F938F939F938091EE009091EF003C
S113066021E082279093EF008093EE009F918F9179
S11306702F910F900FBE0F901F901895CF93DF937B
S113068080E884BF84BF8FEF81BB84BB8ABB87BBF8
S113069088BB80E28BBF84B78F7B84BF2FE946E899
S11306A061E0215040406040E1F700C000000E943A
S11306B0930263E081E00E9475028AEC90E00E945C
S11306C00E038FED93E924E0815090402040E1F740
S11306D000C000000E946E0220E030E080E090E064
S11306E002C020E030E04091E8005091E9004F5F03
S11306F05F4F5093E9004093E80078944091EC00F8
S11307005091ED00413352400CF068C14091EE002D
S11307105091EF004130510509F491C040E050E0A0
S113072051C161E06BBBDC01A854BF4F6C9165BB48
S1130730F901EE0FFF1FEE0FFF1FEE0FFF1FE05931
S1130740FF4FE80FF91F608162BB62E06BBB6C91E5
S113075065BBF9013196EE0FFF1FEE0FFF1FEE0F81
S1130760FF1FE059FF4FE80FF91F7081FC01E05AA9
S1130770FF4F6085672B62BB64E06BBB6C9165BB0C
S1130780F9013296EE0FFF1FEE0FFF1FEE0FFF1F52
S1130790E059FF4FE80FF91F608162BB6AEF6A9569
S11307A0F1F76091E8007091E900603171052CF473
S11307B066EA6A95F1F700C039C0FB0170973F976C
S11307C020F466E96A95F1F731C0FB017F973F9702
S11307D028F465E86A95F1F7000028C0FB01BE978C
S11307E03F9728F464E76A95F1F700C01FC0FB0146
S11307F0FD973F9720F464E66A95F1F717C0FB0173
S1130800EC54F109799728F463E56A95F1F700004F
S11308100DC0655671096931710528F462E46A9561
S1130820F1F700C003C062E36A95F1F701968830DE
S1130830910514F080E090E04F5F5F4F02C040E00C
S113084050E0403664E056070CF46BCF2D5F3F4F09
S11308502930310514F020E030E01092EF001092BE
S1130860EE0041E24A95F1F700003DCF61E06BBB39
S1130870DC01A854BF4F6C9165BBF901EE0FFF1F5B
S1130880EE0FFF1FEE0FFF1FE059FF4FE80FF91F98
S1130890608162BB62E06BBB6C9165BBF901319610
S11308A0EE0FFF1FEE0FFF1FEE0FFF1FE059FF4F6C
S11308B0E80FF91F7081EC01C05ADF4F6881672B84
S11308C062BB64E06BBB6C9165BBD9011296AA0F45
S11308D0BB1FAA0FBB1FAA0FBB1FA059BF4FA80F56
S11308E0B91F6C9162BB6AEF6A95F1F770816881F8
S11308F06723D9F06091E8007091E90062307105D6
S1130900A4F06091EC007091ED006F5F7F4F7093E5
S1130910ED006093EC006BB360626BBB63E06A95BF
S1130920F1F700006BB36F7D6BBB6091E8007091D1
S1130930E900603171052CF466EA6A95F1F700C0AC
S113094039C0FB0170973F9720F466E96A95F1F787
S113095031C0FB017F973F9728F465E86A95F1F76A
S1130960000028C0FB01BE973F9728F464E76A950E
S1130970F1F700C01FC0FB01FD973F9720F464E628
S11309806A95F1F717C0FB01EC54F109799728F443
S113099063E56A95F1F700000DC065567109693188
S11309A0710528F462E46A95F1F700C003C062E3BC
S11309B06A95F1F701968830910514F080E090E093
S11309C04F5F5F4F403664E056070CF44FCF2D5F06
S11309D03F4F293031050CF084CE85CE8091E8005C
S11309E09091E90002979093EB008093EA0063E012
S11309F081E00E94750284ED90E00E940E038FE373
S1130A009DE023E0815090402040E1F700C00000C9
S1130A100E946E0262E082E00E9475028FED90E017
S1130A200E940E038091EA009091EB0068EE73E05F
S1130A300E946605CB01CAE0D0E0BE010E946605B3
S1130A40FC01E054FF4F80810E94C7028091EA00BC
S1130A509091EB0064E670E00E946605CB01BE0154
S1130A600E946605FC01E054FF4F80810E94C7028A
S1130A708091EA009091EB00BE010E946605CB01D3
S1130A80BE010E946605FC01E054FF4F80810E9474
S1130A90C7028091EA009091EB00BE010E946605B6
S1130AA0FC01E054FF4F80810E94C7024FED63E9CF
S1130AB084E0415060408040E1F700C000000E94A3
S1130AC06E0280E090E0DF91CF91089597FB072EAE
S1130AD016F4009407D077FD09D00E947A0507FC2C
S1130AE005D03EF4909581959F4F0895709561953A
S1130AF07F4F0895AA1BBB1B51E107C0AA1FBB1F50
S1130B00A617B70710F0A61BB70B881F991F5A9595
S1130B10A9F780959095BC01CD010895F894FFCF75
S1130B2000808080000000000000008080800000C1
S1130B30FF24240000000000FF9292000000000047
S1130B40FF49490000000000FF494900000000007F
S1130B50FF24240000000000FF9292000000000027
S1130B60FF92920000000000FF49490000000000CD
S1130B70FF2424000000000001020408102040802B
S1130B803031323334353637383950617469656EF3
S1130B906365210047414D45204F5645522100537E
S10B0BA0434F52453A200000C6
S9030000FC
