:100000000C942A000C9447000C9447000C9449006F
:100010000C9447000C9447000C9447000C94470044
:100020000C9447000C9447000C9447000C94470034
:100030000C9447000C9447000C9447000C94470024
:100040000C9447000C9447000C9447000C94470014
:100050000C94470011241FBECFE5D8E0DEBFCDBF12
:1000600010E0A0E6B0E0E0EAF1E002C005900D92F9
:10007000A83AB107D9F720E0A8EAB0E001C01D9284
:10008000AA3AB207E1F70E9463000C94CE000C94E8
:1000900000001F920F920FB60F9211242F938F938F
:1000A0009F938091A8009091A90021E082279093CE
:1000B000A9008093A8009F918F912F910F900FBE60
:1000C0000F901F90189580E884BF84BF8FEF81BB8D
:1000D00084BB17BA88BB80E28BBF84B78F7B84BF99
:1000E00060E070E080E090E002C060E070E0789452
:1000F0002091A8003091A9002130310509F120E0BC
:1001000030E047C0FC01E056FF4F408142BBFB019D
:10011000EE0FFF1FEE0FFF1FEE0FFF1FE05AFF4F06
:10012000E80FF91F408145BB4BE44A95F1F7019672
:100130008830910514F080E090E02F5F3F4F02C0BF
:1001400020E030E0203644E03407E4F26F5F7F4F78
:100150006830710554F6CBCFFC01E056FF4F40816B
:1001600042BBFB01EE0FFF1FEE0FFF1FEE0FFF1F45
:10017000E05AFF4FE80FF91F408145BB4BE44A9519
:10018000F1F701968830910514F080E090E02F5F40
:100190003F4F203644E03407FCF2A9CFF894FFCF5C
:1001A000FFC3BD7E7E7EBDFFFFFFC3BD7E7E7EBDE5
:1001B000BDFFFFC3BD7E7E7E7EBDFFFFC3BD7E7ED5
:1001C0007E7EBDFFFFC3BD7E7E7E7EBDFFFFC3BDC5
:1001D000BD7E7E7EBDFFFFC3C3BD7E7E7EBDFFFFB5
:0801E000010204081020408018
:00000001FF
