:100000000C942A000C9434000C9434000C943400AA
:100010000C9434000C9434000C9434000C94340090
:100020000C9434000C9434000C9434000C94340080
:100030000C9434000C9434000C9434000C94340070
:100040000C9434000C9434000C9434000C94340060
:100050000C94340011241FBECFE5D8E0DEBFCDBF25
:100060000E9436000C945A000C94000017BA8FEFCF
:1000700084BB15BA80E186BBB799FECF86B3282F23
:10008000217030E086B382FB442740F950E0C9017B
:10009000840F951FE6B3E4FB662760F970E0860FD6
:1000A000971FE82FE170E5BB029734F385B38860B2
:0800B00085BBE2CFF894FFCFFD
:00000001FF
